{
  "contractName": "ConstraintsLogicContract",
  "abi": [
    {
      "constant": true,
      "inputs": [],
      "name": "constraintsLogicContract",
      "outputs": [
        {
          "name": "",
          "type": "address"
        }
      ],
      "payable": false,
      "stateMutability": "view",
      "type": "function"
    },
    {
      "anonymous": false,
      "inputs": [
        {
          "indexed": false,
          "name": "msg_sender",
          "type": "address"
        },
        {
          "indexed": false,
          "name": "from",
          "type": "address"
        },
        {
          "indexed": false,
          "name": "to",
          "type": "address"
        },
        {
          "indexed": false,
          "name": "value",
          "type": "uint256"
        }
      ],
      "name": "Authorised",
      "type": "event"
    },
    {
      "constant": false,
      "inputs": [
        {
          "name": "user",
          "type": "address"
        },
        {
          "name": "key",
          "type": "uint256"
        },
        {
          "name": "value",
          "type": "uint256"
        }
      ],
      "name": "editUserList",
      "outputs": [
        {
          "name": "",
          "type": "bool"
        }
      ],
      "payable": false,
      "stateMutability": "nonpayable",
      "type": "function"
    },
    {
      "constant": true,
      "inputs": [
        {
          "name": "user",
          "type": "address"
        },
        {
          "name": "key",
          "type": "uint256"
        }
      ],
      "name": "getUserListEntry",
      "outputs": [
        {
          "name": "value",
          "type": "uint256"
        }
      ],
      "payable": false,
      "stateMutability": "view",
      "type": "function"
    },
    {
      "constant": false,
      "inputs": [
        {
          "name": "_msg_sender",
          "type": "address"
        },
        {
          "name": "_from",
          "type": "address"
        },
        {
          "name": "_to",
          "type": "address"
        },
        {
          "name": "_value",
          "type": "uint256"
        }
      ],
      "name": "check",
      "outputs": [
        {
          "name": "authorized",
          "type": "bool"
        },
        {
          "name": "message",
          "type": "string"
        }
      ],
      "payable": false,
      "stateMutability": "nonpayable",
      "type": "function"
    }
  ],
  "bytecode": "0x608060405234801561001057600080fd5b5061063e806100206000396000f3fe608060405260043610610062576000357c0100000000000000000000000000000000000000000000000000000000900463ffffffff1680630dac475b146100675780634277b5b1146100e45780636f59f1641461020357806383195f9b1461025a575b600080fd5b34801561007357600080fd5b506100ca6004803603606081101561008a57600080fd5b81019080803573ffffffffffffffffffffffffffffffffffffffff16906020019092919080359060200190929190803590602001909291905050506102c9565b604051808215151515815260200191505060405180910390f35b3480156100f057600080fd5b5061017d6004803603608081101561010757600080fd5b81019080803573ffffffffffffffffffffffffffffffffffffffff169060200190929190803573ffffffffffffffffffffffffffffffffffffffff169060200190929190803573ffffffffffffffffffffffffffffffffffffffff1690602001909291908035906020019092919050505061032b565b604051808315151515815260200180602001828103825283818151815260200191508051906020019080838360005b838110156101c75780820151818401526020810190506101ac565b50505050905090810190601f1680156101f45780820380516001836020036101000a031916815260200191505b50935050505060405180910390f35b34801561020f57600080fd5b50610218610592565b604051808273ffffffffffffffffffffffffffffffffffffffff1673ffffffffffffffffffffffffffffffffffffffff16815260200191505060405180910390f35b34801561026657600080fd5b506102b36004803603604081101561027d57600080fd5b81019080803573ffffffffffffffffffffffffffffffffffffffff169060200190929190803590602001909291905050506105b7565b6040518082815260200191505060405180910390f35b600081600160008673ffffffffffffffffffffffffffffffffffffffff1673ffffffffffffffffffffffffffffffffffffffff168152602001908152602001600020600085815260200190815260200160002081905550600190509392505050565b6000606060018060008773ffffffffffffffffffffffffffffffffffffffff1673ffffffffffffffffffffffffffffffffffffffff168152602001908152602001600020600080600181111561037d57fe5b8152602001908152602001600020541415156103d45760006040805190810160405280601981526020017f5f66726f6d20616464726573732063616e6e6f742073656e640000000000000081525091509150610589565b60018060008673ffffffffffffffffffffffffffffffffffffffff1673ffffffffffffffffffffffffffffffffffffffff168152602001908152602001600020600060018081111561042257fe5b8152602001908152602001600020541415156104795760006040805190810160405280601a81526020017f5f746f20616464726573732063616e6e6f74207265636569766500000000000081525091509150610589565b7fad7faa94b17b3a60c8bd57dde07fb40611c68cb2f27f53b9e07f0d1926c0ff6586868686604051808573ffffffffffffffffffffffffffffffffffffffff1673ffffffffffffffffffffffffffffffffffffffff1681526020018473ffffffffffffffffffffffffffffffffffffffff1673ffffffffffffffffffffffffffffffffffffffff1681526020018373ffffffffffffffffffffffffffffffffffffffff1673ffffffffffffffffffffffffffffffffffffffff16815260200182815260200194505050505060405180910390a160016040805190810160405280600a81526020017f617574686f72697a656400000000000000000000000000000000000000000000815250915091505b94509492505050565b6000809054906101000a900473ffffffffffffffffffffffffffffffffffffffff1681565b6000600160008473ffffffffffffffffffffffffffffffffffffffff1673ffffffffffffffffffffffffffffffffffffffff16815260200190815260200160002060008381526020019081526020016000205490509291505056fea165627a7a72305820785cdb3eb6a202d95c16590b5b1378864825eae78886b6c0cbf5953c6e0d78370029",
  "source": "pragma solidity ^0.5.0;\n\ncontract ConstraintsLogicContract {\n\n    // this needs to match the proxy's storage order\n    address public constraintsLogicContract;\n\n    mapping(address => mapping(uint => uint)) userList;\n\n    event Authorised(\n        address msg_sender,\n        address from,\n        address to,\n        uint256 value\n    );\n\n    enum Codes {\n        SEND,\n        RECEIVE\n    }\n\n    function editUserList(address user, uint key, uint value) public returns (bool) {\n        userList[user][key] = value;\n        return true;\n    }\n\n    function getUserListEntry(address user, uint key) public view returns (uint value) {\n        return userList[user][key];\n    }\n\n    function check(\n        address _msg_sender,\n        address _from,\n        address _to,\n        uint256 _value)\n    public returns (\n        bool authorized,\n        string memory message\n    )  {\n\n        // we don't use require here, because errors are not thrown through low-level calls like delegatecall\n        // so we return the error message explicitly\n\n        // SEND(0) == 1   check if from address can send\n        if (userList[_from][uint(Codes.SEND)] != 1) {\n            return (false, \"_from address cannot send\");\n        }\n\n        // RECEIVE(1) == 1   check if to address can receive\n        if (userList[_to][uint(Codes.RECEIVE)] != 1) {\n            return (false, \"_to address cannot receive\");\n        }\n\n        emit Authorised(_msg_sender, _from, _to, _value);\n        return (true, \"authorized\");\n    }\n\n}",
  "sourcePath": "/Users/simondos/projects/azhos_smart_contracts/contracts/constraints/ConstraintsLogicContract.sol",
  "compiler": {
    "name": "solc",
    "version": "0.5.0+commit.1d4f565a.Emscripten.clang"
  },
  "schemaVersion": "3.0.2",
  "updatedAt": "2019-02-26T22:11:14.986Z",
  "devdoc": {
    "methods": {}
  },
  "userdoc": {
    "methods": {}
  }
}