{
  "contractName": "ConstraintsProxy",
  "abi": [
    {
      "constant": true,
      "inputs": [],
      "name": "constraintsLogicContract",
      "outputs": [
        {
          "name": "",
          "type": "address"
        }
      ],
      "payable": false,
      "stateMutability": "view",
      "type": "function"
    },
    {
      "inputs": [
        {
          "name": "_impl",
          "type": "address"
        }
      ],
      "payable": false,
      "stateMutability": "nonpayable",
      "type": "constructor"
    },
    {
      "payable": false,
      "stateMutability": "nonpayable",
      "type": "fallback"
    },
    {
      "constant": false,
      "inputs": [
        {
          "name": "newLogic",
          "type": "address"
        }
      ],
      "name": "updateLogicContract",
      "outputs": [
        {
          "name": "",
          "type": "bool"
        }
      ],
      "payable": false,
      "stateMutability": "nonpayable",
      "type": "function"
    }
  ],
  "bytecode": "0x608060405234801561001057600080fd5b5060405160208061031d8339810180604052602081101561003057600080fd5b8101908080519060200190929190505050806000806101000a81548173ffffffffffffffffffffffffffffffffffffffff021916908373ffffffffffffffffffffffffffffffffffffffff1602179055505061028c806100916000396000f3fe60806040526004361061004c576000357c0100000000000000000000000000000000000000000000000000000000900463ffffffff1680634d2d6330146101185780636f59f16414610181575b34801561005857600080fd5b5060007c0100000000000000000000000000000000000000000000000000000000026000357fffffffff00000000000000000000000000000000000000000000000000000000167bffffffffffffffffffffffffffffffffffffffffffffffffffffffff1916141515156100cb57600080fd5b60008060009054906101000a900473ffffffffffffffffffffffffffffffffffffffff16905060405136600082376000813683855af43d806000843e8160008114610114578184f35b8184fd5b34801561012457600080fd5b506101676004803603602081101561013b57600080fd5b81019080803573ffffffffffffffffffffffffffffffffffffffff1690602001909291905050506101d8565b604051808215151515815260200191505060405180910390f35b34801561018d57600080fd5b5061019661023b565b604051808273ffffffffffffffffffffffffffffffffffffffff1673ffffffffffffffffffffffffffffffffffffffff16815260200191505060405180910390f35b6000816000813b90506000811115156101f057600080fd5b836000806101000a81548173ffffffffffffffffffffffffffffffffffffffff021916908373ffffffffffffffffffffffffffffffffffffffff160217905550600192505050919050565b6000809054906101000a900473ffffffffffffffffffffffffffffffffffffffff168156fea165627a7a72305820aa191261dc7babdccd484a6d4e3750d862e882d6e08b4b13a00f48a84618e8580029",
  "source": "pragma solidity ^0.5.0;\n\ncontract ConstraintsProxy {\n\n\n    address public constraintsLogicContract;\n\n    constructor (address _impl) public {\n        constraintsLogicContract = _impl;\n    }\n\n    /**\n    * @dev See if the new address is home to a contract\n    * Credit: https://github.com/Dexaran/ERC223-token-standard/blob/Recommended/ERC223_Token.sol#L107-L114\n    *\n    * @param a Address of the new logic contract\n    */\n    modifier isContract (address a) {\n        uint length;\n        assembly {\n        // get the code size of this address, if it has code it's a contract!\n            length := extcodesize(a)\n        }\n        require(length > 0);\n        _;\n    }\n\n\n    function updateLogicContract(address newLogic) isContract(newLogic) public returns (bool) {\n\n        constraintsLogicContract = newLogic;\n        return true;\n    }\n\n    function() external {\n        require(msg.sig != 0x0);\n        address _impl = constraintsLogicContract;\n        assembly {\n            let ptr := mload(0x40)\n            calldatacopy(ptr, 0, calldatasize)\n            let result := delegatecall(gas, _impl, ptr, calldatasize, ptr, 0)\n            let size := returndatasize\n            returndatacopy(ptr, 0, size)\n            switch result\n            case 0 {revert(ptr, size)}\n            default {return (ptr, size)}\n        }\n    }\n\n}",
  "sourcePath": "/Users/simondos/projects/azhos_smart_contracts/contracts/constraints/ConstraintsProxy.sol",
  "compiler": {
    "name": "solc",
    "version": "0.5.0+commit.1d4f565a.Emscripten.clang"
  },
  "schemaVersion": "3.0.2",
  "updatedAt": "2019-02-26T22:11:14.986Z",
  "devdoc": {
    "methods": {}
  },
  "userdoc": {
    "methods": {}
  }
}