{
  "contractName": "DummyMaster",
  "abi": [
    {
      "constant": false,
      "inputs": [],
      "name": "increment",
      "outputs": [],
      "payable": false,
      "stateMutability": "nonpayable",
      "type": "function"
    },
    {
      "constant": true,
      "inputs": [],
      "name": "get",
      "outputs": [
        {
          "name": "",
          "type": "uint256"
        }
      ],
      "payable": false,
      "stateMutability": "view",
      "type": "function"
    }
  ],
  "bytecode": "0x608060405234801561001057600080fd5b5060cd8061001f6000396000f3fe6080604052600436106049576000357c0100000000000000000000000000000000000000000000000000000000900463ffffffff1680636d4ce63c14604e578063d09de08a146076575b600080fd5b348015605957600080fd5b506060608a565b6040518082815260200191505060405180910390f35b348015608157600080fd5b5060886094565b005b6000600154905090565b600180540160018190555056fea165627a7a723058206542c07fb31019ccbae58ee385d4f23e1d710d36f9496d8deb5346f5724670d00029",
  "source": "pragma solidity ^0.5.0;\n\ncontract DummyMaster {\n    // resolver needs to be the first in storage to match the ConstraintsProxy contract storage ordering\n    address impl;\n    uint count;\n\n    function increment() public {\n        count = count + 1;\n    }\n    function get() external view returns (uint) {\n        return count;\n    }\n}",
  "sourcePath": "/Users/simondos/projects/azhos_smart_contracts/contracts/_test/DummyMaster.sol",
  "compiler": {
    "name": "solc",
    "version": "0.5.0+commit.1d4f565a.Emscripten.clang"
  },
  "schemaVersion": "3.0.2",
  "updatedAt": "2019-02-26T22:11:14.986Z",
  "devdoc": {
    "methods": {}
  },
  "userdoc": {
    "methods": {}
  }
}