{
  "contractName": "Dummy",
  "abi": [
    {
      "inputs": [
        {
          "name": "_impl",
          "type": "address"
        }
      ],
      "payable": false,
      "stateMutability": "nonpayable",
      "type": "constructor"
    },
    {
      "payable": false,
      "stateMutability": "nonpayable",
      "type": "fallback"
    },
    {
      "constant": false,
      "inputs": [
        {
          "name": "_impl",
          "type": "address"
        }
      ],
      "name": "changeImplementation",
      "outputs": [],
      "payable": false,
      "stateMutability": "nonpayable",
      "type": "function"
    }
  ],
  "bytecode": "0x608060405234801561001057600080fd5b5060405160208061025e8339810180604052602081101561003057600080fd5b8101908080519060200190929190505050806000806101000a81548173ffffffffffffffffffffffffffffffffffffffff021916908373ffffffffffffffffffffffffffffffffffffffff160217905550506101cd806100916000396000f3fe608060405260043610610041576000357c0100000000000000000000000000000000000000000000000000000000900463ffffffff16806317a68dd81461010d575b34801561004d57600080fd5b5060007c0100000000000000000000000000000000000000000000000000000000026000357fffffffff00000000000000000000000000000000000000000000000000000000167bffffffffffffffffffffffffffffffffffffffffffffffffffffffff1916141515156100c057600080fd5b60008060009054906101000a900473ffffffffffffffffffffffffffffffffffffffff16905060405136600082376000813683855af43d806000843e8160008114610109578184f35b8184fd5b34801561011957600080fd5b5061015c6004803603602081101561013057600080fd5b81019080803573ffffffffffffffffffffffffffffffffffffffff16906020019092919050505061015e565b005b806000806101000a81548173ffffffffffffffffffffffffffffffffffffffff021916908373ffffffffffffffffffffffffffffffffffffffff1602179055505056fea165627a7a723058204883c2ff95a120cfba233ff7c17c6b690fb1e6866fc631df6ddf3a6f6b53b4830029",
  "source": "pragma solidity ^0.5.0;\n\ncontract Dummy {\n    address impl;\n\n    constructor (address _impl) public {\n        impl = _impl;\n    }\n\n    function() external {\n        require(msg.sig != 0x0);\n        address _impl = impl;\n        assembly {\n            let ptr := mload(0x40)\n            calldatacopy(ptr, 0, calldatasize)\n            let result := delegatecall(gas, _impl, ptr, calldatasize, ptr, 0)\n            let size := returndatasize\n            returndatacopy(ptr, 0, size)\n            switch result\n            case 0 {revert(ptr, size)}\n            default {return (ptr, size)}\n        }\n    }\n\n    //This function can make the current instance upgradeable, instead of only newly spawned instances\n    // Acces control not included for simplicity (you could use Ownable.sol from OpenZeppelin)\n    function changeImplementation(address _impl) public {\n        impl = _impl;\n    }\n}",
  "sourcePath": "/Users/simondos/projects/azhos_smart_contracts/contracts/_test/Dummy.sol",
  "compiler": {
    "name": "solc",
    "version": "0.5.0+commit.1d4f565a.Emscripten.clang"
  },
  "schemaVersion": "3.0.2",
  "updatedAt": "2019-02-26T22:11:14.985Z",
  "devdoc": {
    "methods": {}
  },
  "userdoc": {
    "methods": {}
  }
}